:100000000C9436000C945E000C945E000C945E0020
:100010000C945E000C945E000C945E000C945E00E8
:100020000C945E000C945E000C945E000C945E00D8
:100030000C945E000C945E000C945E000C945E00C8
:100040000C94FE020C945E000C946E030C94480316
:100050000C945E000C945E000C945E000C945E00A8
:100060000C945E000C945E00A003310511241FBEA9
:10007000CFEFD8E0DEBFCDBF22E0A2ECB1E001C0FF
:100080001D92A438B207E1F711E0A0E0B1E0EAEF79
:10009000FEE002C005900D92A23CB107D9F710E036
:1000A000C5E3D0E004C02197FE010E947805C43367
:1000B000D107C9F70E94E4030C9470070C94000068
:1000C0000895AF92BF92CF92DF92EF92FF920F937B
:1000D0001F93CF93DF936C017B018B01040F151FDE
:1000E000EB015E01AE18BF08C017D10759F0699146
:1000F000D601ED91FC910190F081E02DC6010995AA
:10010000892B79F7C501DF91CF911F910F91FF9056
:10011000EF90DF90CF90BF90AF900895FC01538D8A
:10012000448D252F30E0842F90E0821B930B5417D1
:1001300010F0CF96089501970895FC01918D828D5E
:10014000981761F0A28DAE0FBF2FB11D5D968C91F7
:10015000928D9F5F9F73928F90E008958FEF9FEF36
:1001600008952FB7F8948091C7019091C801A0918C
:10017000C901B091CA012FBF8093D3019093D401DC
:10018000A093D501B093D6018BEC91E00E949D0025
:1001900097FF26C02FB7F8948091C7019091C801AE
:1001A000A091C901B091CA012FBF4091D3015091D4
:1001B000D4016091D5017091D601841B950BA60BDB
:1001C000B70B4091CF015091D0016091D101709156
:1001D000D20184179507A607B707B0F28FEF9FEFFC
:1001E0000895FC01918D828D981731F0828DE80F72
:1001F000F11D858D90E008958FEF9FEF0895FC012C
:10020000918D228D892F90E0805C9F4F821B9109F8
:100210008F73992708958BEC91E00E94FF0021E0F5
:10022000892B09F420E0822F089580E090E0892B4B
:1002300029F00E940B0181110C9400000895FC012B
:10024000A48DA80FB92FB11DA35ABF4F2C91848D37
:1002500090E001968F739927848FA689B7892C9394
:10026000A089B1898C91837080648C93938D848DE7
:10027000981306C00288F389E02D80818F7D8083EA
:100280000895EF92FF920F931F93CF93DF93EC01AA
:1002900081E0888F9B8D8C8D98131AC0E889F9892D
:1002A000808185FF15C09FB7F894EE89FF89608330
:1002B000E889F98980818370806480839FBF81E0B1
:1002C00090E0DF91CF911F910F91FF90EF900895F3
:1002D000F62E0B8D10E00F5F1F4F0F731127E02ECE
:1002E0008C8D8E110CC00FB607FCFACFE889F98906
:1002F000808185FFF5CFCE010E941F01F1CFEB8DEC
:10030000EC0FFD2FF11DE35AFF4FF0829FB7F894D9
:100310000B8FEA89FB8980818062CFCFCF93DF93F7
:10032000EC01888D8823B9F0AA89BB89E889F9890D
:100330008C9185FD03C0808186FD0DC00FB607FC42
:10034000F7CF8C9185FFF2CF808185FFEDCFCE0175
:100350000E941F01E9CFDF91CF91089542E050E064
:1003600068E171E08BEC91E00C946100CF93DF9336
:10037000FC0101900020E9F73197AF01481B590BB0
:10038000BC018BEC91E00E946100EC010E94AE0187
:100390008C0F9D1FDF91CF910895CF93DF93FC01C8
:1003A00044815581608171818BEC91E00E946100F4
:1003B000EC010E94AE018C0F9D1FDF91CF9108953B
:1003C0000F931F93CF93DF938C01EB01FC0180818E
:1003D00091810097E1F06881798161157105A9F03B
:1003E000428153812C813D814217530770F00E9456
:1003F00069078C819D81F801958384831D821C820D
:10040000DF91CF911F910F9108950E941A06888164
:100410009981F801918380838A819B819383828370
:100420008C819D8195838483198218821B821A8214
:10043000E5CFFC0180819181009711F00C941A06A0
:1004400008950F931F93CF93DF93EC0188819981D7
:10045000009759F02A813B812617370730F081E059
:10046000DF91CF911F910F9108958B016F5F7F4FA7
:100470000E94A306009759F0998388831B830A83FF
:100480002C813D81232B59F7FC011082E8CF80E0BD
:10049000E7CFEF92FF920F931F93CF93DF93EC017F
:1004A000FB01E080F180E114F10411F10481158178
:1004B00001151105A9F08C819D81080F191FB80144
:1004C000CE010E942102882399F0288139818C81F4
:1004D0009D81B701820F931F0E9469071D830C83C2
:1004E000CE01DF91CF911F910F91FF90EF90089572
:1004F00088819981009711F00E941A06198218824A
:100500001D821C821B821A82EBCFEF92FF920F9307
:100510001F93CF93DF93EC017B01198218821B821A
:100520001A821D821C82FB0101900020E9F731979D
:100530008F01061B170BB8010E9421022881398107
:10054000811113C02115310519F0C9010E941A0645
:10055000198218821D821C821B821A82DF91CF9120
:100560001F910F91FF90EF9008951D830C83B701A9
:10057000C901DF91CF911F910F91FF90EF900C94E3
:100580006907EF92FF920F931F93CF93DF9300D0F1
:10059000CDB7DEB78C016AE171E00E9485020E944E
:1005A000B10097FD21C08A309105F1F089831A824C
:1005B000F801E480F580FFEFEF1AFF0AB701C801E8
:1005C0000E942102882359F3F8012081318184811E
:1005D0009581BE016F5F7F4F820F931F0E94690755
:1005E000F801F582E482DBCFC8010F900F90DF9114
:1005F000CF911F910F91FF90EF9008951F920F924E
:100600000FB60F9211242F933F938F939F93AF9325
:10061000BF938091C7019091C801A091C901B09189
:10062000CA013091C60123E0230F2D3758F50196FA
:10063000A11DB11D2093C6018093C7019093C801ED
:10064000A093C901B093CA018091C2019091C301E6
:10065000A091C401B091C5010196A11DB11D809367
:10066000C2019093C301A093C401B093C501BF918F
:10067000AF919F918F913F912F910F900FBE0F904F
:100680001F90189526E8230F0296A11DB11DD2CF09
:100690001F920F920FB60F9211242F933F934F93F7
:1006A0005F936F937F938F939F93AF93BF93EF93DA
:1006B000FF938BEC91E00E941F01FF91EF91BF919E
:1006C000AF919F918F917F916F915F914F913F91EA
:1006D0002F910F900FBE0F901F9018951F920F92A1
:1006E0000FB60F9211242F938F939F93EF93FF9345
:1006F000E091DB01F091DC018081E091E101F0917A
:10070000E20182FD1BC090818091E4018F5F8F73B5
:100710002091E501821741F0E091E401F0E0E5531A
:10072000FE4F958F8093E401FF91EF919F918F9100
:100730002F910F900FBE0F901F9018958081F4CFCE
:10074000EBECF1E01382128288EE93E0A0E0B0E0DF
:1007500084839583A683B7838AE091E09183808325
:1007600085EC90E09587848784EC90E09787868776
:1007700080EC90E0918B808B81EC90E0938B828B6E
:1007800082EC90E0958B848B86EC90E0978B868B47
:10079000118E128E138E148E6AE171E08AE792E058
:1007A0000E9485026AE171E084E792E00E9485027E
:1007B0006AE171E08EE692E00E9485026AE171E0F2
:1007C00088E692E00C948502CF93DF9300D000D0AE
:1007D00000D0CDB7DEB7789484B5826084BD84B58F
:1007E000816084BD85B5826085BD85B5816085BD2C
:1007F00080916E00816080936E00109281008091E4
:10080000810082608093810080918100816080936B
:100810008100809180008160809380008091B10090
:1008200084608093B1008091B00081608093B000BB
:1008300080917A00846080937A0080917A0082604F
:1008400080937A0080917A00816080937A00809111
:100850007A00806880937A001092C100E091DB01F9
:10086000F091DC0182E08083E091D701F091D80122
:100870001082E091D901F091DA018FEC808310921F
:10088000E301E091DF01F091E00186E08083E091F7
:10089000DD01F091DE01808180618083E091DD01E6
:1008A000F091DE01808188608083E091DD01F0912C
:1008B000DE01808180688083E091DD01F091DE01BE
:1008C00080818F7D80838BE191E00E94B60100E002
:1008D00010E08EE291E00E94B6018BEC91E00E9464
:1008E000FF00892BD1F3CE0101960E94C102BE0107
:1008F0006F5F7F4F8AE792E00E94E001CE01019690
:100900000E9419028EE391E00E94B6018BEC91E007
:100910000E94FF00892BD1F3CE0101960E94C102F3
:10092000BE016F5F7F4F84E792E00E94E001CE013D
:1009300001960E94190280E591E00E94B6018BECBD
:1009400091E00E94FF00892BD1F3CE0101960E9415
:10095000C102BE016F5F7F4F8EE692E00E94E00110
:10096000CE0101960E94190283E691E00E94B60131
:100970008BEC91E00E94FF00892BD1F3CE01019610
:100980000E94C102BE016F5F7F4F88E692E00E9425
:10099000E001CE0101960E94190284E791E00E94D5
:1009A000B6018AE191E00E94B60168E871E0CE01EB
:1009B00001960E9485026AE772E0CE0101960E94CC
:1009C00049020E94CD01CE0101960E94190261E9FF
:1009D00071E0CE0101960E94850264E772E0CE01CB
:1009E00001960E9449020E94CD01CE0101960E940B
:1009F00019026CE971E0CE0101960E9485026EE653
:100A000072E0CE0101960E9449020E94CD01CE0102
:100A100001960E94190268EA71E0CE0101960E94D7
:100A2000850268E672E0CE0101960E9449020E94AA
:100A3000CD01CE0101960E9419028AE191E00E9447
:100A4000B60182EB91E00E94B6010115110509F48F
:100A500040CF0E940B01882309F43BCF0E94000085
:100A600038CF88E692E00E9419028EE692E00E945A
:100A7000190284E792E00E9419028AE792E00C943E
:100A800019022F923F924F925F926F927F928F92B4
:100A90009F92AF92BF92CF92DF92EF92FF920F930D
:100AA0001F93CF93DF93CDB7DEB7CA1BDB0B0FB617
:100AB000F894DEBF0FBECDBF09942A8839884888D4
:100AC0005F846E847D848C849B84AA84B984C8846A
:100AD000DF80EE80FD800C811B81AA81B981CE0F61
:100AE000D11D0FB6F894DEBF0FBECDBFED01089546
:100AF000EE0FFF1F0590F491E02D09940F931F93C3
:100B0000CF93DF938230910510F482E090E0E09182
:100B10008202F091830230E020E0B0E0A0E0309764
:100B200099F42115310509F44AC0281B390B2430EA
:100B30003105D8F58A819B816115710589F1FB0129
:100B400093838283FE0111C0408151810281138110
:100B500048175907E0F04817590799F4109761F0C2
:100B600012960C93129713961C933296CF01DF9135
:100B7000CF911F910F9108950093820210938302E9
:100B8000F4CF2115310551F04217530738F0A90170
:100B9000DB019A01BD01DF01F801C1CFEF01F9CFFF
:100BA0009093830280938202CDCFFE01E20FF31F68
:100BB000819391932250310939832883D7CF209193
:100BC000800230918102232B41F420910201309167
:100BD0000301309381022093800220910001309123
:100BE00001012115310541F42DB73EB740910401B3
:100BF00050910501241B350BE0918002F091810298
:100C0000E217F307A0F42E1B3F0B2817390778F0E3
:100C1000AC014E5F5F4F2417350748F04E0F5F1F42
:100C20005093810240938002819391939FCFF0E093
:100C3000E0E09CCFCF93DF930097E9F0FC0132977F
:100C400013821282A0918202B0918302ED0130E002
:100C500020E01097A1F420813181820F931F209111
:100C60008002309181022817390709F061C0F093A2
:100C70008102E0938002DF91CF910895EA01CE17BF
:100C8000DF07E8F54A815B819E0141155105B1F707
:100C9000E901FB83EA8349915991C40FD51FEC17F1
:100CA000FD0761F4808191810296840F951FE9010F
:100CB00099838883828193819B838A83F0E0E0E03B
:100CC00012968D919C9113970097B9F52D913C91B7
:100CD0001197CD010296820F931F209180023091CF
:100CE00081022817390739F6309751F5109283029F
:100CF00010928202B0938102A0938002BCCFD38372
:100D0000C28340815181840F951FC817D90761F4B0
:100D10004E5F5F4F88819981480F591F51834083EF
:100D20008A819B81938382832115310509F0B0CF9D
:100D3000F0938302E09382029ECFFD01DC01C0CFDD
:100D400013821282D7CFB0E0A0E0E9EAF6E00C947B
:100D500043058C01009751F4CB010E947E058C0164
:100D6000C801CDB7DEB7E0E10C945F05FC01E60FEA
:100D7000F71F9C0122503109E217F30708F49DC0C8
:100D8000D901CD91DC911197C617D70798F0C530DE
:100D9000D10530F3CE0104978617970708F3C61BD9
:100DA000D70B2297C193D1936D937C93CF010E946F
:100DB0001A06D6CF5B01AC1ABD0A4C018C0E9D1EE3
:100DC000A0918202B0918302512C412CF12CE12C94
:100DD000109731F5809180029091810288159905D4
:100DE00009F05CC04616570608F058C08091000113
:100DF00090910101009741F48DB79EB74091040195
:100E000050910501841B950BE817F90708F055C0B0
:100E1000F0938102E0938002F90171836083A0CF97
:100E20008D919C91119712966C90129713967C90CD
:100E30001397A815B90559F56C0142E0C40ED11CF1
:100E4000CA14DB0420F1AC014A195B09DA011296DD
:100E5000159780F06282738251834083D9016D932C
:100E60007C93E114F10471F0D7011396FC93EE9397
:100E7000129776CF22968C0F9D1FF9019183808364
:100E8000F301EFCFF0938302E093820269CF48161B
:100E9000590608F42C017D01D3019ACFCB010E94A1
:100EA0007E057C01009749F0AE01B8010E94600701
:100EB000C8010E941A06870153CF10E000E050CF0E
:100EC000FB01DC0102C001900D9241505040D8F767
:100ED0000895FB01DC0101900D920020E1F70895D7
:100EE00010E0C5E3D0E004C0FE010E947805219621
:0A0EF000C633D107C9F7F894FFCF0D
:100EFA0000008402800000000000410161008E00B1
:100F0A008E01FF009D00F1000D0A00456A657263BB
:100F1A006963696F2031206974656D203200496EFA
:100F2A006772657365204E6F6D6272653A00496E2D
:100F3A006772657365204170656C6C69646F3A000D
:100F4A00496E677265736520646972656363696F68
:100F5A006E3A00496E67726573652063656C756CDD
:100F6A0061723A00526573756C7461646F732064C0
:100F7A0065204461746F73004E6F6D6272653A202A
:100F8A00004170656C6C69646F3A2000446972654F
:100F9A006363696F6E3A200043656C756C61723ADF
:100FAA00200046696E2064656C20636F6469676F10
:020FBA00000035
:00000001FF
